:020000040800F2
:1000000048080020050100080B2B0008792600088D
:10001000092B0008A50A00080134000800000000B0
:10002000000000000000000000000000E52B0008B8
:10003000A70A0008000000000D2B0008412C000852
:100040001F0100081F0100081F0100081F01000810
:100050001F0100081F0100081F0100081F01000800
:100060001F0100081F0100081F0100081F010008F0
:100070001F0100081F0100081F0100081F010008E0
:100080001F0100081F0100081F0100081F010008D0
:100090001F0100081F0100081F0100081F010008C0
:1000A0001F0100081F0100081F0100081F010008B0
:1000B000ED2C00081F0100081F0100081F010008A7
:1000C0001F0100081F0100081F0100081F01000890
:1000D0001F010008193000081F0100081F01000857
:1000E0001F0100081F0100081F010008DFF810D0E1
:1000F00000F00EFC00480047853D0008AFF300808B
:10010000480800200648804706480047FEE7FEE70B
:10011000FEE7FEE7FEE7FEE7FEE7FEE7FEE7FEE7B7
:10012000E92C0008ED000008202A04DB203A21FA1F
:1001300002F00021704721FA02F3D040C2F1200200
:100140009140084319467047A0F16101192900D870
:1001500020387047D2B201E000F8012B491EFBD2D3
:1001600070470022F6E710B513460A4604461946C2
:10017000FFF7F0FF204610BDF0B480EA0102D40F73
:100180004200B2EB410F02D20246084611464A0035
:1001900042D0C30DDDB2C1F3C752AD1A202D35DAFE
:1001A000C1F3160141F4000204B15242C5F1200628
:1001B00002FA06F12A411044B3EBD05F23D0C4B158
:1001C000012DA0EBC35009DCF0BC4FF0004202EA65
:1001D000C352DBB200F5000000F0C8B9400000F1E6
:1001E000807000EBC350A0F1807040EAD1704900EC
:1001F00009E0490841EAC071A0EBC35000F50000D6
:10020000400800EBC350F0BC00F0A7B961420122E6
:1002100002EB4101001BF6E7F0BC704781F00041A2
:10022000AAE780F00040A7E780EA010210B502F0DB
:100230000043400022D04A001FD0010E01EB1261A2
:10024000C0F35600C2F3560240F4000042F400022C
:10025000A0FB022000047F39140400D0401C50EAA7
:10026000124001D44000491EC2B20C0604EBD0106B
:10027000401C4008802A02D003E0002010BD20F07E
:100280000100002900DA0020184310BD30B480EAD4
:10029000010202F0004530F0004221F0004013D08E
:1002A00090B1C30DD40DC2F31601C0F31600E41AC9
:1002B00041F4000140F400027D34914201D3641CFA
:1002C00000E04900002C02DA30BC002070474FF4F7
:1002D00000000023914201D3891A034340084FEAEA
:1002E0004101F7D151B1914202D14FF0004105E0F7
:1002F00002D24FF0010101E06FF0010103EBC450A5
:10030000284430BC00F029B92DE9FE4F81EA0304EE
:1003100004F0004421F0004100944FF0000B23F062
:10032000004350EA01045ED052EA03045BD0C3F3F9
:100330000A54C1F30A552C44A4F2F3340194A0FBEF
:100340000254C1F3130141F48011C3F3130343F4C6
:10035000801301FB024400FB034E840A970A44EA1F
:10036000815447EA8357A4FB076802958D0A05FB71
:1003700007854FEA932C04FB0C542705029D4FEA96
:10038000065847EA1637B5EB08056EEB070C870EE3
:10039000920E47EA811742EA8312A7FB0201B6EBED
:1003A0000B0164EB00042B0D43EA0C335E1844EBA5
:1003B0001C50DA465146E7FB0201C5F313044FEA2D
:1003C0000B3343EA14534FEA0432019C43EA060319
:1003D000A4F10C040294009CCDE900B400F003F9F0
:1003E00003B0BDE8F08F00200146F9E770B521F0B9
:1003F000004303430CD0C1F30A550024D5EB040598
:1004000064EB0403D617AD1AB34102DB00200146AA
:1004100070BD201841EB025170BD96230022114699
:1004200000F0A4B80EB5C10F80EAE0700844CA0716
:10043000002140F233438DE80E000A460B4600F0DF
:10044000D2F803B000BD00F0004230F000400AD006
:10045000C10D01F56071C0F3160042EA0151C208F6
:1004600040071143704700200146704701F00043E8
:1004700030B421F0004150EA010206D00A0DA2F585
:100480006072C1F31301002A02DC30BC0020704707
:10049000440F44EAC104C100E01830BC00EBC25074
:1004A00000F05BB8002801DBC0F10040002901DB4F
:1004B000C1F1004181427047002801DBC0F10040DA
:1004C000002901DBC1F100418842704730B50B467D
:1004D000014600202022012409E021FA02F59D4274
:1004E00005D303FA02F5491B04FA02F52844151E48
:1004F000A2F10102F1DC30BD2DE9F05F05460020DC
:1005000092469B4688460646814640241BE0284684
:10051000414647462246FFF707FE53465A46C01A51
:10052000914110D311461846224600F003FA2D1AC5
:1005300067EB01084F4622460120002100F0FAF93E
:1005400017EB00094E41201EA4F10104DFDC4846F0
:1005500031462A464346BDE8F09F0029A8BF7047B0
:10056000401C490008BF20F00100704710B4B0FAE9
:1005700080FC00FA0CF050EA010404BF10BC704784
:1005800049B1CCF1200421FA04F411FA0CF118BF9E
:10059000012121430843A3EB0C01CB1D4FEA00616D
:1005A0004FEA102042BF002010BC704700EBC35040
:1005B00010440029A4BF10BC7047401C490008BF6C
:1005C00020F0010010BC704710B5141E73F1000438
:1005D00008DA401C41F1000192185B411A4301D135
:1005E00020F0010010BD2DE9F04D92469B4611B15F
:1005F000B1FA81F202E0B0FA80F22032904600F0C7
:1006000099F904460F4640EA0A0041EA0B015346B5
:100610005A46084313D0114653EA010019D0C8F1D5
:1006200040025046FFF780FD05460E4650465946AB
:10063000424600F07FF9084305D0012004E020463F
:100640003946BDE8F08D0020054346EAE0762C43AC
:1006500037430A986305E40AA0EB08000022FD0A6C
:1006600044EA47540A3002D500200146E9E7010573
:1006700010196941DDE9084500196941BDE8F04DEF
:10068000A2E72DE9FE4F804681EA0300C00F0C4629
:10069000009021F0004123F00045B8EB0200A94191
:1006A00005D24046214690461C460B46024623F0A2
:1006B0000040104347D0270DC7F30A00C3F30A5187
:1006C0000290401A019040286BDAC3F3130040F403
:1006D000801B0098924620B10023D2EB030A63EB03
:1006E0000B0B01985946C0F14002504600F022F928
:1006F00006460D4650465946019A00F02AF910EB7D
:1007000008006141002487EA115284EAE7731A4322
:1007100040D0009A62B3019A012A4FEA075215DCD1
:10072000001B61EB02014FF0004202EA0752CDE9E3
:100730000042001C41F5801132462B46FFF753FF63
:1007400003B0BDE8F08F40462146F9E7001B61EB9E
:100750000201001C41F5801300185B412018A2F52E
:10076000001747EB030140EAD570B6196D4111E05F
:100770006D084FEA360645EAC0754FEA0752001B7E
:1007800061EB0201001C41F5801149084FEA30007D
:100790000019514132462B4603B0BDE8F04FFFF738
:1007A00013BF0098012240000023D0EB020263EB4C
:1007B000E073009821464FEAE074B8EB000061EB6B
:1007C0000401E9E783F000435BE781F0004158E76B
:1007D0002DE9F04D81EA030404F0004B21F00045BF
:1007E00014464FF0000A23F0004150EA050220D0E1
:1007F00054EA01021DD0C5F30A570246C5F313039C
:10080000C1F31300C1F30A5640F4801543F480137A
:10081000A7EB0608101BD64608F2FD3873EB05005F
:1008200002D308F1010801E092185B41B8F1000F12
:1008300003DA00200146BDE8F08D00204FF480115E
:10084000064684460EE0171B73EB050705D3121B03
:1008500063EB050306434CEA010C49084FEA3000FC
:1008600092185B4150EA0107EDD152EA030012D021
:1008700082EA040083EA0501084305D0101BAB415E
:1008800006D20122002306E000224FF0004302E0DE
:100890006FF0010253101AEB06004CEB085110EBFD
:1008A0000A0041EB0B01BDE8F04DFFF78DBEC1F32F
:1008B0000A52C1F3130140F2FF3341F480119A420E
:1008C00002DA00200146704740F233439A42A2F216
:1008D000334202DC5242FFF727BC00F02BB8000085
:1008E00030B5041E71F1000404DB4FF000444042B7
:1008F00064EB0101141E73F1000405DB1C464FF08C
:100900000043524263EB0403994208BF904230BD5A
:10091000064C074D06E0E06840F0010394E807004C
:1009200098471034AC42F6D3FFF7E4FBA83F000829
:10093000C83F0008202A04DB203A00FA02F1002018
:1009400070479140C2F1200320FA03F3194390400D
:100950007047202A06DBCB17203A41FA02F043EA1F
:10096000E07306E041FA02F3D040C2F12002914068
:10097000084319467047000070B504460068816856
:10098000C943C90717D1816821F00101816000F0D6
:1009900089FE05460AE000BF00F084FE401B0228E5
:1009A00004D920688068C043C00706D020688068EA
:1009B000C043C007F0D0002070BDA06A40F0100016
:1009C000A062E06A40F00100E062012070BD00001A
:1009D000F8B500260446009600688168C943C90737
:1009E0002DD0816841F001018160164816490068E8
:1009F000B0FBF1F000E0401E00900028FBD100F0B9
:100A000051FE054616E000BF00F04CFE401B0228D8
:100A100010D920688068C043C0070BD0A06A40F09E
:100A20001000A062E06A40F00100E06284F82460F7
:100A30000120F8BD20688068C043C007E4D10020D1
:100A4000F8BD0000DC00002040420F0010B500247B
:100A5000124800F033F9114800F078FBC8210F4824
:100A600000F0D6FAA8B90D4800F012FA800510D5AA
:100A70000A4800F00FFAFFF7D5FC4FF06632084B3A
:100A8000FFF742FC6FF00B02FFF7B0FCFFF7EEFC44
:100A90000446024800F0BAFB204610BDEC000020DE
:100AA00066660A40FEE7704772B6FEE70649002018
:100AB000C8610648016941F004010161016941F022
:100AC0004001016170470000280200200020024020
:100AD000064A0021D16106490A6942F002020A6110
:100AE0004861086940F04000086170472802002012
:100AF00000200240044B0022DA61044A136943F0EB
:100B00000103136101807047280200200020024089
:100B10000068704714480022C168CB06134904D509
:100B2000CA6942F00202CA611022C3685B0705D598
:100B3000CB6943F00103CB6142F00402C369DB07D8
:100B400007D0CB6943F00403CB61C16921F00101F7
:100B5000C161A2F58071013901D0C2607047C169DD
:100B600021F00101C16170470020024028020020ED
:100B700070B5054600F096FD0646114C09E0681C6C
:100B800007D025B100F08EFD801BA84201D90320BB
:100B900070BDE068C007F2D1E068800601D5202072
:100BA000E060E068C00605D4E069C00702D1E068F3
:100BB000400703D5FFF7AEFF012070BD002070BDD8
:100BC0000020024070B586B000240E46054604940D
:100BD00000F056FC0120CDE90040CDE9025004A907
:100BE000684600F0AFFB10B906A002F00BFC3246DD
:100BF00000232946022000F003FC00F0F7FB06B0BA
:100C000070BD00004572617365204F4B0D0A0000F6
:100C10002DE9F0470446800003F0FAF80646002567
:100C200005E000BFFFF712FF46F825006D1CA54246
:100C3000F8DB002719E00025E01BA0F1010811E016
:100C400006EB850956F82500D9F80410FFF734FCA7
:100C500007D256F82500D9F8041046F82510C9F82F
:100C600004006D1CA845EBDC7F1CA742E3DB641E7F
:100C700004EBD470401056F82040304603F05AF888
:100C80002046BDE8F087000070B50A4C0546206894
:100C900010F0FF4F03D12846FFF7BAFF2060284627
:100CA000FFF7B6FF6060044A216803F020F861682E
:100CB000216070BDC8000020CDCC4C3EF8B50025A9
:100CC0000446009590F82400012808D0012084F8FB
:100CD00024002046FFF750FE060002D053E0022019
:100CE000F8BDA06A20F4885040F00200A062022003
:100CF00000F076FD26490968B1FBF0F0400000E005
:100D0000401E00900028FBD12046FFF761FE2068BE
:100D1000816841F00801816000F0C4FC074608E0EA
:100D200000F0C0FCC01B0A2803D9206880680007B7
:100D300015D4206880680007F2D42068816841F0EB
:100D40000401816000F0AEFC074612E000F0AAFC4E
:100D5000C01B0A280DD920688068400709D5A06A01
:100D600020F0020040F01000A06284F8245001201E
:100D7000F8BD206880684007E8D4A06A20F002002F
:100D800040F00100A06284F824503046F8BD000015
:100D9000DC000020F8B50024009490F824202546BB
:100DA000012A12D0012280F824204A681F23072A32
:100DB0000DD20668776B521E02EB820293409F436E
:100DC0000B6893401F43776319E00220F8BD066863
:100DD0000D2A0AD2376BD21F02EB820293409F4347
:100DE0000B6893401F43376309E0F76A0D3A02EB43
:100DF000820293409F430B6893401F43F7620A6847
:100E0000072306680A2A0AD3F7680A3A02EB420265
:100E100093409F438B6893401F43F76008E0376916
:100E200002EB420293409F438B6893401F4337611C
:100E30000A68102A01D0112A20D1124B02689A4266
:100E400017D193681B0219D4936843F4000393608D
:100E50000968102912D10C490C4A0968B1FBF2F15A
:100E600001EB8101490000E0491E00910029FBD1FE
:100E700004E0816A41F020018162012480F824505D
:100E80002046F8BD00240140DC00002040420F0055
:100E9000806A70470068C06C704700002DE9F0411F
:100EA0004FF0000704003D467ED0A06A002628B916
:100EB000E66284F82460204600F07EF82046FFF7C2
:100EC0005BFDA16AC90600D420B1A06A40F0100001
:100ED000A06269E0A16A21F4885141F00201A16297
:100EE0006268E169237B0A4347EA43010A43A16838
:100EF0004FF48077B94209D0012907D05FF0000193
:100F000094F814C0BCF1010F02D00AE03946F7E7AB
:100F1000F3B1A36A43F02003A362E36A43F0010341
:100F2000E3622368D3F804C02CF4694C4CEA010C4A
:100F3000C3F804C021688B68DFF870C003EA0C03B3
:100F400013438B60A168B9420BD0012909D00CE092
:100F5000DFF85CC0A3690CEB43330B4343F400613F
:100F6000DFE7218A0D05A5F580152168CB6A23F4FA
:100F700070032B43CB62216889680E4B1940914264
:100F800008D1E662A16A21F0020141F00101A162EB
:100F9000BDE8F081A06A20F0020040F01000A062DD
:100FA000E06A40F00100E0620120F1E7FDF7E1FFB7
:100FB00000E0FFFFFE0E1FFF00B585B0002100918D
:100FC00001910291039100680E49884218D10E48A0
:100FD000816941F400718161816901F400710491BA
:100FE000816941F0040181618069694600F0040073
:100FF00004900120009003200190044800F054FA6E
:1010000005B000BD0024014000100240000801406E
:101010002DE9F84300270D460446009700F042FBF7
:10102000804620688168C90508D5A06A40F0200084
:10103000A06284F824700120BDE8F8834168C905E6
:1010400003D4C06A10F4700F2AD0022000F0C8FB4D
:101050003B490968B1FBF0F62068036939490B4246
:101060004FEA61014FEAA1121FD1C3684FEA611C28
:1010700013EA0C0F19D103690B4225D1C068104245
:1010800022D1142023E0681C0AD02DB100F00AFB05
:10109000A0EB0800A84203D920680068800725D586
:1010A000206800688007EED52DE003690B4202D16D
:1010B000C168114206D0026923490A4206D1C068BC
:1010C000084203D1542002E0292000E0FC204643DE
:1010D000009816E0681C11D02DB100F0E3FAA0EBE7
:1010E0000800A8420AD90098B04207D2A06A40F08E
:1010F0000400A06284F8247003209DE70098401C3F
:101100000090B042E6D321686FF012000860A06A38
:1011100040F40070A06220688068C0F34240072855
:101120000CD1207B50B9A06A20F48070A062A06A24
:10113000C00403D4A06A40F00100A06200207BE755
:10114000DC000020244992244992240070B5044612
:1011500090F8240001280DD0012084F824002046B6
:10116000FFF736FC02004FF0000005D084F82400A1
:10117000104670BD022070BDA16A40F20123994360
:1011800041F48071A1621F4D23681F49AB4218D101
:101190000E6816F4702F14D0A66A46F48016A66264
:1011A0000E68760505D5A66A26F4005646F48056E4
:1011B000A662A66AF6040AD5E66A26F00606E66284
:1011C00006E0A66A26F48016A6625E68E9E7E06299
:1011D00084F824006FF00200186020688368C3F36D
:1011E0004243072B05D1A84208D1096811F4702F9A
:1011F00004D0816841F480118160B9E7816841F4CD
:10120000A001F9E7002801400424014010B504467C
:1012100090F82400012807D0012084F824002046FB
:10122000FFF7AAFB10B107E0022010BDA16A21F46C
:10123000885141F00101A162002184F8241010BD01
:1012400010B590F821100022022905D004218163F5
:1012500080F82020012010BD01680B6823F00E03E8
:101260000B6001680B6823F001030B6090F84030BD
:10127000C46B012101FA03F3636080F8211080F848
:101280002020104610BD000010B590F82110002459
:10129000022903D00421816301243DE001680A682A
:1012A00022F00E020A6001680A6822F001020A6058
:1012B0001A4A0168914201D1012121E0174A1432F2
:1012C000914201D110211BE0144A2832914201D1F0
:1012D000891515E0114A3C32914201D189140FE081
:1012E0000E4A5032914202D14FF4803108E00B4A4D
:1012F0006432914202D14FF4801101E04FF08071CD
:10130000064A083A5160012180F82110002180F836
:101310002010416B01B18847204610BD08000240F3
:1013200070B5044600F0BEF90546601C02D00448C2
:101330000078044400F0B6F9401BA042FAD370BD17
:10134000D00000202DE9F047054626480F4601262B
:10135000017E01290FD00121814601762868DFF83E
:1013600088804CF25034022808D0A2462046FFF76D
:10137000FFFBA8B131E00220BDE8F0872046FFF76F
:10138000F7FB08BB0120FFF791FB2046FFF7F0FBBE
:10139000D8F81010064621F00401C8F810101CE01F
:1013A0004FF0FF303860AC6811E02046FFF790FB4B
:1013B0005046FFF7DDFBD8F81010060021F00201BF
:1013C000C8F8101001D03C6007E004F58064D5E94E
:1013D000020100EB8120A042E7D8002189F8181013
:1013E0003046C9E728020020002002400348016976
:1013F00041F08001016100207047000000200240A0
:101400002DE9F05F07461C4888460024017E1546FA
:101410001E46012909D00121814601764CF2503A3D
:101420005046FFF7A5FB18B122E00220BDE8F09F6F
:10143000012F02D0022F00D00427D346DFF83CA0B2
:10144000220128463146FEF76FFE81B208EB4400C8
:10145000FFF750FB5846FFF78BFBDAF8102022F01D
:101460000102CAF8102018B9641CE4B2BC42E7D3E8
:10147000002289F81820D9E7280200200020024025
:10148000064900200A69120607D5054A4A60054A3E
:101490004A600969090600D5012070470020024012
:1014A00023016745AB89EFCD2DE9F84FDFF8B891FF
:1014B000002409F1040A0AF1040B23460F270BF15B
:1014C000040EC9E00125A5402A40AA427DD1674EFD
:1014D000D1F804C0ACEB0608B44532D014DCBCF142
:1014E000030F3AD009DCBCF1000F2AD0BCF1010F88
:1014F0001CD0BCF1020F31D11DE0BCF1110F17D08F
:10150000BCF1120F2AD119E0B8F5881F19D006DCFA
:10151000B8F5803F15D0B8F5801F1FD111E0B8F5A0
:10152000001F0ED0B8F5041F18D10AE0CB6815E0F3
:10153000CB681B1D12E0CB6808330FE0CB680C337F
:101540000CE08B682BB1012B4FF0080303D04561F1
:1015500004E0042302E0056100E00023FF2A01D833
:10156000064601E000F104064FEA840501D9A5F121
:101570002005D6F8008007FA05FC28EA0C0803FAD3
:1015800005F548EA0508C6F800804D68ED0062D50B
:10159000374DAE6946F00106AE61AD6924F0030631
:1015A00005F001050095334D06EB050CDCF80850FD
:1015B000A607360F07FA06F825EA0805DFF8B8800F
:1015C000404503D14FF0000817E044E0DFF8AC805D
:1015D000404502D14FF001080FE0DFF8A4804045FC
:1015E00002D14FF0020808E0DFF89880404502D1B0
:1015F0004FF0030801E04FF0040808FA06F848EA43
:101600000508CCF808804D68D9F80060ED034D4618
:1016100001D5164300E096432E604D68DAF800606D
:10162000AD03554601D5164300E096432E604D6844
:10163000DBF80060ED025D4601D5164300E09643FD
:101640002E604D68DEF80060AD02754601D5164388
:1016500000E096432E60641C0D682A46E5407FF446
:1016600031AFBDE8F88F0000000401400000111008
:10167000001002400000014000080140000C014041
:101680000010014000140140C26821EA02030A4030
:1016900043EA0241016170470AB1016170470904E0
:1016A000FBE700000148806870470000D000002080
:1016B000024881680278114481607047D0000020A0
:1016C000074810B5016841F010010160032000F0E7
:1016D00075F80F2000F006F800F024F8002010BD87
:1016E0000020024070B50D4D04464FF47A71287801
:1016F000B1FBF0F00A490968B1FBF0F000F0C6FB5D
:1017000048B9102C07D200222146501E00F036F8AE
:1017100000206C6070BD012070BD0000D000002072
:10172000DC0000200C4808B5816941F001018161AD
:10173000816901F001010091C16941F08051C161ED
:10174000C06900F0805000900448416821F0E061D9
:1017500041F00071416008BD0010024000000140EE
:10176000002809DB00F01F020121914040098000A0
:1017700000F1E020C0F8001170470000F0B40E4BFB
:101780001B680C46C3F30223C3F10705042D00D9DF
:101790000425191D072901D2002300E0DB1E0126C4
:1017A00006FA05F1491E214099409E40761E1640DA
:1017B0003143F0BC01F036BE0CED00E0064900F00C
:1017C000070208684FF6FF03184040EA0220034A68
:1017D00010430860704700000CED00E00000FA05BF
:1017E00010B529A401461DCC86B08DE81D002AA0A5
:1017F0002A4C006804900020012923D002293AD005
:1018000010291DD161682268D20119D5C1F3834224
:10181000C9031DF8020009D5616804AAC1F340415B
:10182000515C1F4AB2FBF1F1484301E01D494843B6
:101830006168490204D440005FF00301B0FBF1F09D
:1018400006B010BD226AC2F30121012903D192071B
:1018500001D5C803F4E7022905D1626A920702D5CF
:1018600049F64040ECE70329EAD121688903E7D52E
:101870004FF22440E4E700F033F96168C1F38131AD
:10188000491C4900DAE700000203040506070809BD
:101890000A0B0C0D0E0F1010010200000010024088
:1018A00000127A0000093D002DE9F8430546007852
:1018B000354CC00754D0E0690026C00008D4E06968
:1018C00040F08050E061E069012600F08050009017
:1018D0002E480168C90512D40168804641F4807120
:1018E0000160FFF7DFFE074605E000BFFFF7DAFE05
:1018F000C01B642823D8D8F80000C005F6D5206A9C
:1019000010F4407021D0A98801F4407181421CD0AC
:10191000206A1F49012220F440700A6000220A60F8
:101920002062C00711D0FFF7BDFE074641F288389C
:1019300008E000BFFFF7B6FEC11B414502D90320F6
:10194000BDE8F883206A8007F4D5206A696820F42E
:101950004070084320621EB1E06920F08050E061D1
:101960002878800705D56068A96820F440400843BE
:1019700060602878C00605D56068E96820F48000BA
:10198000084360600020DBE7001002400070004068
:10199000400442422DE9F0470F46050061D0434E16
:1019A000306800F00700B84209D2306820F0070024
:1019B00038433060306800F00700B84251D12868E1
:1019C0003B4C810712D5400703D5606840F4E060C6
:1019D00060602878000703D5606840F4605060605C
:1019E0006068A96820F0F000084360602878C007AC
:1019F00028D06868012810D02168022810D08907F3
:101A000000292EDA616821F0030101436160FFF7CC
:101A100049FE804641F288390DE021688903EFE7ED
:101A20008901EDE7FFF73EFEA0EB0801494502D929
:101A30000320BDE8F0876068696800F00C00B0EB37
:101A4000810FEFD1306800F00700B8420BD9306841
:101A500020F0070038433060306800F00700B842DB
:101A600001D00120E5E72878400705D56068E968DE
:101A700020F4E060084360602878000706D56068BD
:101A8000296920F4605040EAC100606000F038F835
:101A90006168084AC1F30311515CC84006490860F7
:101AA00006480068FFF71EFE0020C2E70020024043
:101AB00000100240DE3E0008DC000020D4000020C0
:101AC0000448054900684968044AC1F30221515C91
:101AD000C8407047DC00002000100240EE3E0008C5
:101AE0000448054900684968044AC1F3C221515CB1
:101AF000C8407047DC00002000100240EE3E0008A5
:101B000012A185B00FC98DE80F0014A0144A006817
:101B100004905168134801F00C03042B10D0082BDB
:101B20000ED1C1F38343C9031DF803000AD55168E0
:101B300004AAC1F34041515C0A4A5043B0FBF1F0A2
:101B400005B0704708494843FAE70000020304055E
:101B5000060708090A0B0C0D0E0F101001020000F9
:101B60000010024000127A0000093D002DE9F84FF4
:101B7000040070D02078C04DC00749D06868C0F319
:101B80008100012807D06868C0F38100022809D1CC
:101B90006868C00306D52868800339D560680028C6
:101BA000E7D035E06068B0F5803F0BD010B1B0F5FC
:101BB000A02F11D0286820F480302860286820F4F5
:101BC000802002E0286840F480302860606890B18E
:101BD000FFF768FD06460AE0286840F48020286088
:101BE000F0E700BFFFF75EFD801B642873D828680C
:101BF0008003F7D50CE0FFF755FD064605E000BF72
:101C0000FFF750FD801B6428F0D828688003F7D4C4
:101C100020789A4E80074FF001094FF0000839D51F
:101C2000686810F00C0F07D06868C0F381000228C4
:101C300009D16868C00306D42868800714D52069D4
:101C4000012808D110E02069B0B1C6F80090FFF774
:101C500029FD074605E00AE1FFF724FDC01B022825
:101C6000C4D828688007F7D52868616920F0F80093
:101C700040EAC10028600DE0C6F80080FFF712FDC1
:101C8000074604E0FFF70EFDC01B022823D8286892
:101C90008007F7D4207800072CD57948A169D9B1FD
:101CA000C0F80090FFF7FEFC074604E0FFF7FAFCDF
:101CB000C01B02280FD8686A8007F7D571484FF417
:101CC000FA510068B0FBF1F0009000BF0098411E8F
:101CD0000091FAD20EE080E0C0F80080FFF7E2FC4D
:101CE000074604E0FFF7DEFCC01B022875D8686ACF
:101CF0008007F7D42078400760D5E8690027C00046
:101D000008D4E86940F08050E861E869012700F0F4
:101D1000805000905C480168C90513D4016883466F
:101D200041F480710160FFF7BDFC824606E000BF10
:101D3000FFF7B8FCA0EB0A0064284ED8DBF80000DF
:101D4000C005F5D5E06801280AD008B1052813D0F0
:101D5000286A20F001002862286A20F0040002E0CE
:101D6000286A40F001002862E06841F2883B98B19F
:101D7000FFF798FC82460BE0286A40F004002862D6
:101D8000EEE700BFFFF78EFCA0EB0A0159455AD8D9
:101D9000286A8007F6D50CE0FFF784FC824605E050
:101DA000FFF780FCA0EB0A0159454CD8286A800750
:101DB000F6D41FB1E86920F08050E861E06988B38B
:101DC0006968C1F38101022944D00228C6F8608005
:101DD00004D0FFF767FC044638E034E0FFF762FC0C
:101DE000074604E0FFF75EFCC01B02282BD82868DA
:101DF0008001F7D4206AB0F5803F05D16868A168FA
:101E000020F4003008436860D4E908010843696899
:101E100021F4741108436860C6F86090FFF742FC33
:101E2000044606E025E000BFFFF73CFC001B02284B
:101E300009D828688001F7D51BE000BFFFF732FC06
:101E4000001B022802D90320BDE8F88F2868800112
:101E5000F4D40EE00128F7D06868226A00F48031DB
:101E6000914204D1616A00F47010884201D00120CF
:101E7000EAE70020E8E700000010024000004242CC
:101E800080044242DC0000200070004010B5401E7B
:101E9000B0F1807F01D3012010BD4FF0E0246061DC
:101EA0000F21601701F0BEFA0020A0610720206119
:101EB000002010BD7047704770B590F83C20012A93
:101EC00026D0012480F83C40022280F83D2003689F
:101ED0005A689D6822F070060A6832435A600D4BBA
:101EE00002689A4208D0B2F1804F05D00A4B9A425C
:101EF00002D00A4B9A4204D1496825F08003194365
:101F0000916080F83D40002180F83C10084670BD8B
:101F1000022070BD002C0140000400400008004079
:101F200010B5040003D094F83D0010B107E0012083
:101F300010BD002084F83C00204600F01FF802206D
:101F400084F83D00211D206800F0D6FE012084F8B1
:101F5000460084F83E0084F83F0084F8400084F88E
:101F6000410084F8420084F8430084F8440084F877
:101F7000450084F83D00002010BD000008B5006851
:101F8000B0F1804F12D10A48C16941F00101C1612D
:101F9000C069002200F00100009011461C20FFF7EC
:101FA000EDFBBDE808401C20FFF7DABB08BD0000D0
:101FB0000010024090F83D10012901D00120704727
:101FC000022180F83D100168CA6842F00102CA602F
:101FD00000680B49884208D0B0F1804F05D009490C
:101FE000884202D00849884204D1816801F0070183
:101FF000062903D0016841F001010160002070470B
:10200000002C0140000400400008004070B5044668
:1020100090F83C00012817D0012584F83C5002209C
:1020200084F83D002068826822F0770222F47F4223
:1020300082600868502830D00DDC20284DD005DCA7
:1020400098B310283BD148E0022070BD302844D01E
:10205000402834D139E0602828D0702806D0B0F567
:10206000805F2CD0B0F5005F29D10AE0CB68D1E9C0
:102070000121206800F076FE2068816841F0770138
:1020800009E0CB68D1E90121206800F06BFE2068EF
:10209000816841F48041816011E0CA684968206824
:1020A00000F072FE5021206807E016E0CA68496817
:1020B000206800F07AFE6021206800F05DFE84F860
:1020C0003D50002084F83C0070BDCA684968206813
:1020D00000F05AFE40212068EFE7226801461046D2
:1020E000EBE7704770B50446006801694FF00005E2
:1020F000C943890715D4C168C943890711D4E91EAA
:10210000016101202077206880698007204602D085
:10211000FFF7E7FF04E000F098F8204600F096F89B
:10212000257720680169C943490717D4C168C943A5
:10213000490713D46FF00401016102202077206861
:10214000806910F4407F204602D0FFF7CAFF04E008
:1021500000F07BF8204600F079F8257720680169C7
:10216000C943090716D4C168C943090712D46FF0DF
:1021700008010161042020772068C069800720469B
:1021800002D0FFF7AEFF04E000F05FF8204600F059
:102190005DF8257720680169C943C90617D4C1686D
:1021A000C943C90613D46FF01001016108202077DC
:1021B0002068C06910F4407F204602D0FFF791FFED
:1021C00004E000F042F8204600F040F8257720684F
:1021D0000169C943C90708D1C168C943C90704D106
:1021E000891E0161204600F033F820680169C94367
:1021F000090609D4C168C943090605D46FF08001F6
:1022000001612046FFF756FE20680169C94349066F
:1022100009D4C168C943490605D46FF04001016182
:10222000204600F023F820680169C94389060BD4D1
:10223000C168C943890607D46FF0200101612046B7
:10224000BDE87040FFF737BE70BD704770470000B3
:102250000449884205D10448012101704188491C84
:1022600041807047E0010020060000207047704761
:1022700070470000F8B5026804461068D1685369D9
:1022800010F00F0F4FF0000553D003F0010601F4DA
:10229000907737435FD0C20705D0CA0503D5226CBB
:1022A00042F001022264420705D5DA0703D0226C0E
:1022B00042F002022264820705D5DA0703D0226CBD
:1022C00042F004022264020707D501F020023243E3
:1022D00003D0226C42F008022264226C002A34D01F
:1022E000800604D5880602D5204600F090FD2068BF
:1022F0004069216CC0F38010090700D430B3204638
:1023000000F06DFD2068416949061BD5416921F047
:1023100040014161A06BA8B158494163A06BFEF731
:10232000B3FF002811D0A06B416B01B0BDE8F040B5
:10233000084783060FD58B060DD52046BDE8F8402B
:1023400000F065BD2046FFF793FFF8BD2046FFF77C
:102350008FFF2564F8BD266B2023012E52D1C606BF
:1023600050D5CE064ED51068506800905069400692
:102370002AD5A16B086840680004000CEAD0A68D3D
:102380008642E7D9E0858869202818D0D06820F4F3
:102390008070D0602068416921F0010141612068AE
:1023A000416921F04001416184F83E302563206895
:1023B000C16821F01001C160A06BFEF741FFA08D44
:1023C000E18D401A81B219E0A08DE18D401A81B2F1
:1023D000E08D0028BED00029BCD0D06820F49070D9
:1023E000D0602068426922F00102426184F83E30E8
:1023F00025632068C26822F01002C2602046FFF701
:1024000036FFF8BD05062BD50D0629D594F83D00FD
:102410002128F6D1A068B0F5805F01D12069B0B164
:10242000206A411C2162216800784860E08C401ECF
:102430000004000CE084E4D12068C16821F0800130
:10244000C1602068C16841F04001C160F8BD206AE8
:102450000088C0F308005060206A801C2062E5E715
:102460004006F3D54806F1D5D168204621F0400159
:10247000D16084F83D3000F0FEF8F8BDCF2D0008A3
:1024800070B5040004D094F83D00002510B106E0BA
:10249000012070BD84F83C50204600F023F8242031
:1024A00084F83D002068C16821F40051C1602046D5
:1024B00000F008FD2068016921F490410161206865
:1024C000416921F02A0141612068C16841F400514D
:1024D000C1602564202084F83D0084F83E0000207F
:1024E00070BD000030B585B00024009401940294C2
:1024F00003940068184988422CD11848816941F436
:1025000080418161816901F480410491816941F0D8
:10251000040181618069124D00F0040004904FF4C1
:102520000070009002200190032003906946284625
:10253000FEF7BAFF2815CDE9000469462846029443
:10254000FEF7B2FF002201212520FFF717F9252011
:10255000FFF706F905B030BD003801400010024019
:102560000008014090F83E30202B0ED159B152B1F5
:1025700090F83C30012B08D0012380F83C30002338
:10258000036300F0FBBC012070470220704700008D
:102590000A494A780D2A0DD00A2A04D0084B087837
:1025A0001A54401C0870054905480122491C803016
:1025B000FFF7D8BF01208870F5E700000200002077
:1025C0001C0100202DE9F843044690F83D001F4609
:1025D00016460D4620284CD1C5B1BEB194F83C003A
:1025E000012846D0012084F83C004FF00008C4F8D0
:1025F0004080212084F83D00FFF754F8A6848146EE
:10260000E684A068B0F5805F03D004E00120BDE857
:10261000F883206928B12E465FF0000584F83C80DD
:102620000EE00026FAE78021204600F0C2FCA0B9A7
:10263000AEB116F8010B21684860E08C401EE084C2
:10264000E08C4B464FF0000200970028EBD14FF092
:102650004001204600F0ADFC30B10320D7E735F84B
:10266000020BC0F30800E6E7202084F83D000020BC
:10267000CDE70220CBE77047FEE700002DE9F041EF
:102680000720FEF701FB744CE062FDF7DCFE02461A
:102690000B4672A000F0B6FED4E90B01FDF7BEFDBB
:1026A000724920F0004001260025884224DAA16A00
:1026B000491CA162A078632802D0401CA07003E0EE
:1026C000A5706B4800F09EFEE06A2063216AFDF76A
:1026D000F3FE19D26749E06A884215DAE56120699C
:1026E00060616570207860B1A5612561E068401C7B
:1026F000E06061A0E1681CE0A57029466648A5621B
:10270000E0E7E6602670F4E7616AE06AFDF7CAFE7A
:1027100015D26249E06A884211DBE068C4E90550DD
:10272000E5612570607838B12069401C20615CA0AB
:10273000216900F067FE0BE026616670F7E7E0694B
:10274000401CE0610F2803D12561E5606561A5614A
:10275000207A02270028A069A0F10B0107D01329D5
:1027600051D261693C294ED95A290BD34BE0172924
:102770000FD2626940F292439A420AD940F2AA43C8
:102780009A4206D2A5616561A57100F0C7F848A01C
:1027900057E0333817280FD2606940F26A429042FE
:1027A0000AD940F28242904206D2A5616561A571C4
:1027B00000F0CAF844A044E017291AD2606940F238
:1027C0003A2188420AD940F25221884206D2A561B4
:1027D0006561A57100F0CEF840A032E0B0F5877FCA
:1027E00007D9B0F5937F04D201F048FBA7713FA051
:1027F00027E044F25061A06A2AE000BF01F03EFBEE
:10280000A671BDE8F081A0F14701132904D26169E6
:102810000A2901D91E29C8D3A0F125011B2904D2F8
:102820006169242901D94029D1D311381B280CD240
:102830006069882809D9A42807D201F01FFBA77175
:1028400030A0BDE8F04100F0DDBDA06A40F6B8312F
:102850008842D3D0D5E700000C000020766F6C745E
:102860006167653D252E33660D0A0000CDCCCC3E58
:10287000543F00089A9959402A2A2A2A2A2A2A2AA1
:102880002A2A2A2A2A2A2A2A2A575F54494D455396
:102890003D25640D0A000000F83E0008CDCC4C3EFA
:1028A00024425F54494D45533D25640D0A00000004
:1028B0005465737420504153532A2A2A2A2A0D0A38
:1028C0002A5F2A0D0A0000005465737420464149AE
:1028D0004C0D0A2A5F2A0D0A00000000546573742B
:1028E000696E670D0A2A5F2A0D0A00004465746547
:1028F00063746564205075636B0D0A2A5F2A0D0AA4
:10290000000000004465746563746564207075633D
:102910006B0D0A2A5F2A0D0A0000000010B5094C51
:10292000012240212046FEF7B7FE0022102120465A
:10293000FEF7B2FE20460022BDE810402021FEF73F
:10294000ABBE0000000C014010B5094C0022402134
:102950002046FEF7A1FE012210212046FEF79CFE34
:1029600020460022BDE810402021FEF795BE000061
:10297000000C014010B5094C002240212046FEF712
:102980008BFE002210212046FEF786FE2046012203
:10299000BDE810402021FEF77FBE0000000C014082
:1029A0003EB5002410480094019402940D498460BF
:1029B000016004730475012505614FF460214460D2
:1029C000C161FEF76BFA08B1FEF76EF8CDE900457C
:1029D000694605480294FEF7DDF9002801D0FEF7AC
:1029E00063F83EBD00240140EC00002030B585B006
:1029F000002418480094019402940394816941F0E2
:102A000020018161816901F020010491816941F017
:102A100004018161816901F004010491816941F03F
:102A20000801816180690C4D00F0080004900022CB
:102A300071212846FEF730FE712000900120CDE97B
:102A400001040220039069462846FEF72DFD05B0DB
:102A500030BD000000100240000C014010B586B0EF
:102A600000241748009401940294039404944FF0B6
:102A700080410594016042F20F71C0E9011440F2F7
:102A8000CF21C0E903148461FFF74AFA08B1FEF7C9
:102A90000BF84FF48050009069460948FFF7B6FAEA
:102AA00008B1FEF701F8049404A905480594FFF75E
:102AB00003FA002801D0FDF7F7FF06B010BD0000B3
:102AC000E00100200E4810B50C4901604FF4E131DF
:102AD0004160002181600C22C160C0E90412816163
:102AE000C161FFF7CDFC08B1FDF7DEFFBDE8104086
:102AF000012204490248FFF735BD000000380140BB
:102B00009C01002003000020FEE7FEE77047000064
:102B100070B5244E3046FDF7FBFFFDF77EFC224DDD
:102B20002946FDF7B3FB214C214901442062B1F550
:102B3000000F0CD9FA213046FEF744F83046FDF775
:102B4000E7FFFDF76AFC2946FDF7A0FB2062FDF7D1
:102B50007AFC02460B4617A000F054FC1A4E304691
:102B6000FDF7D6FFFDF759FC2946FDF78FFB174906
:102B7000606288420CDD32213046FEF723F8304691
:102B8000FDF7C6FFFDF749FC2946FDF77FFB6062B4
:102B9000FDF759FCBDE8704002460B460CA000F062
:102BA00031BC0000008000080000C8420C0000207A
:102BB0000000E0BF726561642076616C7565313A32
:102BC000252E32660D0A0000008400080000A04097
:102BD000726561642076616C7565323A252E3266C5
:102BE0000D0A0000704770B50022144603460D46DA
:102BF00004E0521CD2B25B1CFE2A1FD81E780D2E98
:102C000007D0002EF5D104E0641CE4B26D1CFE2C4C
:102C100014D82B780D2B01D0002BF5D1A2420DD169
:102C2000002307E004780D78AC4207D15B1C401C00
:102C3000DBB2491C9342F5D3002070BD012070BD6A
:102C400010B5FEF735FD08480188491C89B201809E
:102C5000B1F5FA7F07D100210180BDE810400121C4
:102C60000248FEF711BD10BD00000020000C01401D
:102C700030B593B028216846FDF773FA14210AA8ED
:102C8000FDF76FFA002501200F95109511950104AD
:102C900012958DE8230004904FF4E010CDE9081060
:102CA000022407946846FEF761FF08B172B6FEE79A
:102CB0000AA90F2081E831004FF48060CDE90D05AD
:102CC00002210AA8FEF766FE08B172B6FEE74FF4CD
:102CD000004011900F940FA8FEF7E6FD002801D0E8
:102CE00072B6FEE713B030BD704700000148FFF731
:102CF000F9B90000E0010020F0B50268164B174C4E
:102D0000174D4FF08047984205D0B84203D0A042FB
:102D100001D0A84203D122F070064A68324398429B
:102D200005D0B84203D0A04201D0A84203D122F47A
:102D30004074CA6822434C6922F080022243026038
:102D40008A68C2620A688262984201D10969016395
:102D500001214161F0BD0000002C01400004004051
:102D60000008004010B5846842EA032224F47F443E
:102D70000A432243826010BD826822F070020A4337
:102D800042F007018160704710B5036A046A24F0BD
:102D900001040462846924F0F00444EA021423F07C
:102DA0000A020A438461026210BD10B5036A23F06F
:102DB000100303628369046A23F4704343EA023216
:102DC00024F0A00343EA01118261016210BD10B535
:102DD000406A0021C185C184FFF74AFA10BD01682D
:102DE000CA6822F49072CA6001684A6922F001023E
:102DF0004A61016B012904D10168CA6822F01002FE
:102E0000CA60202180F83E1000210163704708B598
:102E100090F83E10222901D0022008BD82684FF4AC
:102E200080539A4201D1016921B1816A9A421BD033
:102E30004AB10AE00268816A5268C2F308020A8055
:102E4000816A891C08E0026972B10268526802F066
:102E50007F020A70816A491C8162C18D491E090482
:102E6000090CC18503D019E002685268F1E70168D6
:102E7000CA6822F02002CA600168CA6822F480721F
:102E8000CA6001684A6922F001024A61202180F883
:102E90003E10016B012903D0FFF77AFB002008BD2B
:102EA000002101630168CA6822F01002CA6001684B
:102EB0000A68D20602D50A6849680091818DFFF739
:102EC000D6F9EBE770B5044600680169E26821F4C1
:102ED0004051114301612169A068084361690843B9
:102EE0002168CA6841F20C639A430243CA602068B1
:102EF0004169A26921F44071114341611E49206872
:102F0000884202D1FEF7ECFD01E0FEF7D9FD00EBAF
:102F1000C00101EB0012606864218000B2FBF0F395
:102F2000B3FBF1F36FF018067343B2FBF0F5B2FB9D
:102F3000F0F605EB8305322303EB0515B5FBF1F540
:102F4000B6FBF1F605F0F00505EB0615B2FBF0F661
:102F5000B2FBF0F0B0FBF1F06FF01802504306EB5B
:102F6000800003EB0010B0FBF1F0216800F00F00CF
:102F70002844886070BD000000380140816282856D
:102F8000C28500210164222280F83E2080F83C1096
:102F90000168CA6842F48072CA6001684A6942F0F6
:102FA00001024A610068C16841F02001C16000204F
:102FB00070472DE9F041984617460E460446069D97
:102FC0001DE0681C1BD02DB1FEF76CFBA0EB0800C8
:102FD000A84214D92068C16821F4D071C16020686A
:102FE000416921F001014161202084F83D0084F80D
:102FF0003E00002084F83C000320BDE8F0812068FA
:10300000006836EA000004D00020B842D9D0002081
:10301000F3E70120F9E700000148FFF72BB90000B2
:103020009C0100202DE9F041A0B080216846FDF709
:1030300098F8A748017801297DD10024047025461D
:103040006F46A44EDFF8908207E000BF18F8050035
:10305000FDF77AF878556D1CEDB230788542F5D3DE
:10306000C1B29D48FDF77DF87C559DF80000012711
:103070009A4D48280CD006DC442839D046286ED01A
:1030800047283BD194E04C283ED0562836D184E0E6
:10309000924869463430FFF7A6FD00282ED190A053
:1030A00000F0B0F990A000F0ADF992A000F0AAF9FC
:1030B00092A000F0A7F994A000F0A4F995A000F068
:1030C000A1F997A000F09EF998A000F09BF99AA0B2
:1030D00000F098F99BA000F095F99DA000F092F9FE
:1030E000A0A000F08FF9A4A000F08CF9EF71A3E08C
:1030F0007A4869463B30FFF776FD10B1EC712C72CF
:1031000049E02F72EC7197E0744869464330FFF74D
:103110006AFD9C4DD0B1714869464E30FFF763FDA2
:10312000B0B16E4869465930FFF75DFDC0B16B48DC
:1031300069466D3000E084E0FFF755FD98B16748BF
:1031400069466430FFF74FFDD0B124E0012215E05D
:10315000012240212846FEF79FFA8BA025E052E08D
:1031600001222021F6E7002220212846FEF794FACA
:10317000002240212846FEF78FFA00221021E9E7BD
:10318000012220212846FEF787FA01224021284605
:10319000FEF782FADAE77EA007E05048694677300A
:1031A000FFF721FD0028F6D17DA000F02BF943E0C8
:1031B0004A4869468130FFF716FDC8B147480722E3
:1031C00069468B3000F07AFE0028E4D100256420A7
:1031D000FEF7A6F80920FDF757FDFDF734F9024682
:1031E0000B4675A000F00EF96D1CC82DEFDB23E037
:1031F0000920FDF749FDFDF726F902460B466EA0B2
:1032000000F000F918E035480A226946953000F0D0
:1032100055FE6E4DC0B131480A226946A23000F019
:103220004DFE88B32D486946AF30FFF7DCFC00281F
:10323000B1D100BFFFF76CFC31786846FCF791FF15
:10324000347020B0BDE8F0819DF80B209DF80D0092
:103250009DF80E106423303A30385A4300EB80005A
:1032600002EB40003039471839465948FDF7AAFCAF
:103270003846FDF7D2F82946FDF708F8FDF7E3F8E0
:1032800002460B4653A01FE0FFE79DF80B009DF898
:103290000D209DF80E1064233038303A584302EB6D
:1032A000820200EB42003039471839464E48FDF79C
:1032B00089FC3846FDF7B1F82946FCF7E7FFFDF732
:1032C000C2F802460B4649A000F09CF8B2E70000A5
:1032D00004000020020000201C0100200C0000203F
:1032E00048454C500D0A000056657273696F6E0DAB
:1032F0000A00000044454255470D0A004C45445F12
:10330000525F4F4E0D0A00004C45445F475F4F4EE1
:103310000D0A00004C45445F595F4F4E0D0A0000F6
:103320004C45445F4F4E0D0A000000004C45445F81
:103330004F46460D0A0000004745545F4144430D87
:103340000A0000004745545F56414C0D0A0000003A
:10335000465F5345545F56414C573A322E32320D38
:103360000A000000465F5345545F56414C423A30D4
:103370002E35300D0A000000465F4745545F564128
:103380004C0D0A00000C01406F6B0D0A000000009C
:10339000434F4D4D414E44204552524F520D0A006D
:1033A0004275726E696E2056657273696F6E203158
:1033B0002E360D0A000000004144435F56616C75D3
:1033C000653A252E33660D0A000000000000C84251
:1033D000008000087365742076616C7565313A254C
:1033E0002E32660D0A000000008400087365742008
:1033F00076616C7565323A252E32660D0A00000042
:10340000FEE700000FB4054B10B503A9044A02986B
:1034100000F0EAF810BC5DF814FB00001D3D000848
:10342000E00000200907090E002804DB00F1E0207D
:1034300080F80014704700F00F0000F1E02080F8E1
:10344000141D704702E008C8121F08C1002AFAD1F3
:1034500070477047002001E001C1121F002AFBD114
:10346000704700002DE9FF5F82B00021DDE90430E4
:10347000020DDDF840B0034318D044F61050A2F21C
:10348000FF3242431514119801281FD0A5EB0B0001
:10349000401C5FEA000A4FF000064E4FDFF83891FB
:1034A000B046504615D5CAF1000413E01198012426
:1034B0004AA3012801D16FEA0B010298119AC0E9D1
:1034C0000031C0E9024206B0BDE8F09FCBF1000038
:1034D000DFE704460021404A491842EB0450CDE999
:1034E000001012E0E00707D032463B46404649460E
:1034F000FCF70AFF8046894632463B46104619468D
:10350000FCF702FF06460F466410002CEAD1DDE905
:103510000401DDE90023BAF1000F06DAFCF7F4FE3E
:1035200042464B46FCF7F0FE05E0FDF751F94246F6
:103530004B46FDF74DF904460E460022284BFDF799
:10354000CFF903D84FF0FF30014607E00022254BAA
:1035500020463146FDF795F8FDF7A9F9102409E05A
:10356000002C0ADB0A220023FCF7C6FF039B303243
:103570001A55641E50EA0102F2D1641C039AC4F188
:1035800011031444119A012A03D0012208430DD1DA
:103590000AE0084304D000204FF0110B119072E7AD
:1035A000A3EB0B056D1E0DE05B4504DD4FF0000243
:1035B00005F1010504E003DA4FF00002A5F1010571
:1035C000002AECD002981199C0E90231C0E9004507
:1035D00079E70000000014400000F03F30000000D8
:1035E0000000F0430000E03F2DE9FF4F95B09A4600
:1035F000884606460025EEE1252877D10024274697
:10360000F94A0121039400E0044316F8013F203BEE
:1036100001FA03F01042F7D130782A2811D06FF068
:103620002F033078A0F13002092A16D8039A44F00B
:10363000020402EB820203EB42021044761C039068
:10364000EFE758F8042B0392002A03DA504244F4BF
:103650000054039044F00204761C30782E2816D1D2
:1036600016F8010F44F004042A280DD06FF02F0241
:103670003078A0F13003092B09D807EB870302EB60
:103680004303C718761CF3E758F8047B761C3078A0
:103690006C280FD006DC4C2817D068280DD06A287B
:1036A00014D104E0742810D07A280FD10DE044F42E
:1036B00000140AE044F4801401E044F440147278E9
:1036C000824202D104F58014761C761C307866287C
:1036D0000BD013DC582877D009DC002875D045289A
:1036E000F6D04628F4D047281AD193E118E0632891
:1036F00035D0642879D0652812D18BE1702873D039
:1037000008DC6728F1D069286FD06E280DD06F28AB
:1037100006D1ACE073282CD0752874D0782853D00B
:103720005246179990476D1C54E1C4F30250022889
:1037300009D003280DD0D8F8001004280DD00D6052
:1037400008F1040846E1D8F80010EA17C1E9005270
:10375000F6E7D8F800100D80F2E70D70F0E718F8E2
:10376000041B8DF8001000208DF80100EB460120AD
:1037700003E058F804BB4FF0FF3061074FF0000141
:1037800002D40DE009F101018946B9420FDA814501
:10379000F8DB1BF809100029F4D108E009F1010158
:1037A00089468142FADB1BF809100029F6D10398FB
:1037B0005346A0EB090721463846179A00F080FAD5
:1037C000284400EB090507E044E008E10DE01BF8A0
:1037D000010B524617999047B9F10109F7D25346A8
:1037E00021463846179AF2E039E00A21C4F3025222
:1037F0004FF0000B0091022A06D058F8040BC117B5
:10380000032A09D00AE023E008F1070020F00702AC
:10381000F2E80201904605E000B2C117042A01D186
:1038200040B2C117002906DA0A460021404261EB86
:1038300002012D2202E0220504D52B228DF804205E
:10384000012203E0E20701D02022F7E7914657E08A
:103850000A2100E010214FF0000B00910BE0102135
:103860004FF0000B44F004040827009103E0082007
:103870004FF0000B0090C4F30252022A05D058F812
:10388000040B0021032A08D008E008F1070020F00B
:103890000702F2E80201904603E080B2042A00D158
:1038A000C0B24FF0000922072AD53278702A07D01B
:1038B000DDF800C08CF0100C5CEA0B0C05D00EE0BB
:1038C00040228DF80420012208E050EA010306D0CE
:1038D00030238DF804308DF8052002229146009B9C
:1038E00083F0080353EA0B030AD150EA010201D125
:1038F000620705D530228DF804204FF001097F1EA4
:103900003278582A04D039A20C920CAA02920BE009
:103910003BA2F9E75B46009AFCF7EEFD0C9B9B5C33
:10392000029A521E0292137050EA0102F2D10298DA
:1039300004A9081A00F1200B600702D524F4803492
:1039400000E001275F4502DDA7EB0B0000E000204F
:1039500000EB0B01009003984944401A0390E003E8
:1039600006D453462146179A039800F0A9F9054456
:10397000002706E001A85246C05D179990476D1CCC
:103980007F1C4F45F6DBE0030CD553462146179AC2
:10399000039800F095F9054404E030205246179949
:1039A00090476D1C0099481E00900029F5DC08E046
:1039B0000298029952460078491C02911799904743
:1039C0006D1CBBF10001ABF1010BF1DC5BE100F020
:1039D00065F90544761C307800287FF40DAE19B0E7
:1039E0002846BDE8F08F000009280100303132334D
:1039F000343536373839616263646566000000002B
:103A00003031323334353637383941424344454614
:103A100000000000600700D4062708F1070020F02E
:103A20000700F0E80223804603F0004C5FEA0C0038
:103A300001D097A009E0200501D596A005E0E00798
:103A400001D095A001E0AFF24C001390307823F044
:103A5000004365280CD006DC452809D046281DD037
:103A600047287FD13BE0662818D067287AD136E016
:103A70000021112F01DB112000E0781CCDE90001AD
:103A800004A90CA8FFF7EEFCDDE90D010C9A4FF03C
:103A9000000B07F10109109200914EE04FF0004039
:103AA0000097CDE9011004A90CA8FFF7DBFCDDE9C4
:103AB0000D020C9B0F994FF0000B91461093009252
:103AC00011B9791C00EB0109B7EB090003D4C0F16F
:103AD000FF3B07F10109A9EB0700019042E0012F2C
:103AE00000DA01270021112F01DD112000E0384606
:103AF000CDE9000104A90CA8FFF7B4FCDDE90D0134
:103B00000C9A00914FF0000BB946109221070FD488
:103B1000009A4A4503DA914601E0A9F10109B9F199
:103B2000010F05DD109AA9F10101515C3029F4D093
:103B3000B84202DA10F1040F03DA0121CDE90110D5
:103B400010E0002803DC8344A9EB000102E0411CE3
:103B5000494500DD8946A0EB0B00401C01904FF069
:103B600000400290200705D40198484502DB4FF041
:103B7000FF30019000208DF84B0002980DF14B07AB
:103B8000B0F1004F25D002200C902B200D90029810
:103B900000280CDA404202902D200D9007E00A2107
:103BA0000298FCF793FC3031029007F8011D0C9944
:103BB000481E0C900029F2DC02980028EFD1791EF3
:103BC0000D980870307800F0200040F0450007F8AC
:103BD000020D11A8C01BC01D02901398007800B1FF
:103BE000012000EB0901019801EBE071029801440A
:103BF0000398401A401E0390E00306D45346214622
:103C0000179A039800F05CF805441398007818B1EF
:103C10005246179990476D1CE00323D55346214621
:103C2000179A039800F04CF805441BE0BBF1000F15
:103C300007DB0098584504DD1098179910F80B0021
:103C400001E0179930205246904701980BF1010B83
:103C5000401E05F10105019004D12E20524617990E
:103C600090476D1CB9F10001A9F10109DEDC05E006
:103C700017F8010B5246179990476D1C0299481E80
:103C800002900029F4DC53462146179A03989EE6D9
:103C90002D0000002B000000200000002DE9F04165
:103CA000044600251E461746880404D405E039461C
:103CB0002020B0476D1C641EF9D52846BDE8F08170
:103CC0002DE9F041044600251E469046C80301D563
:103CD000302700E02027880404D505E04146384617
:103CE000B0476D1C641EF9D52846BDE8F08170B55B
:103CF0000C460546164611464FF07E50FCF78EFAEC
:103D00002146FCF791FA044631462846FCF78CFA26
:103D10002146BDE87040FCF72FBA000013B54FF6FE
:103D2000FF73012269460248FEF74CFC00981CBD57
:103D30009C01002010B5002821D0114B0022001F4B
:103D4000196803E0814203D80A4649680029F9D17D
:103D500052B11368841A9C4204D100681844106060
:103D6000104602E0506000E0186039B102680B1A9A
:103D7000934203D10B681A4402604968416010BD48
:103D8000E4000020FDF79CFCFEF772FFFEF72EFE1C
:103D9000FEF706FEFEF796FEFEF760FE1648FEF7FB
:103DA00009F9FEF7B5FEDFF85480154E154F164C95
:103DB000DFF85890002500BFFFF734F9307801286C
:103DC000FAD198F800000028F6D1FEF757FC3570BC
:103DD000387801280AD00228EED120880A28EBD9A9
:103DE000258020214846FDF74FFCE5E720880A287A
:103DF000E2D925801021F5E7E00100201300002022
:103E0000060000201200002008000020000C0140E5
:103E1000F0B50B30154D20F007010024144A0FE0D7
:103E200003688B420BD38B4205D95E1A431847684F
:103E3000C3E9006700E04368136002C004E0021DAC
:103E400010680028ECD12046002802D1286808B16B
:103E50000020F0BD064A07481060074A121A22F0F7
:103E60000702C0E9002401202860D7E7E80000200D
:103E7000E40000204C0200204804002070B50D4DE5
:103E800000240D4EEC602C616C61AC612246402137
:103E90003046AC62FDF700FC002210213046FDF7F1
:103EA000FBFB002220213046FDF7F6FBEC702C7165
:103EB0006C7170BD0C000020000C014030B5002377
:103EC00009E004780D78AC4201D0012030BD5B1CC4
:103ED000401CDBB2491C9342F3D3002030BD0000EC
:103EE00000000000000001020304060708090000AA
:103EF00000000102030400002323232323232323A0
:103F00002323232323232323232323232323232381
:103F10002323232323232323232323232323232371
:103F20002323232323232323232323232323232361
:103F30002323232323232323232323232323232351
:103F400023427573795F54696D65733D25640D0A6D
:103F500000000000232323232323232323232323BD
:103F60002323232323232323232323232323232321
:103F70002323232323232323232323232323232311
:103F80002323232323232323232323232323232301
:103F900023232323232323427573795F54696D659B
:103FA000733D25640D0A0000C83F00080000002092
:103FB000EC00000044340008B4400008EC0000208D
:103FC0005C070000543400080000000000000000FE
:103FD00000000000000000000000000000000000E1
:103FE00000000000000000000000000000000000D1
:103FF00000000000000000000000000000000000C1
:10400000000000000000000048454C500D0A00442C
:10401000454255470D0A004C45445F525F4F4E0DD7
:104020000A004C45445F475F4F4E0D0A004C454423
:104030005F595F4F4E0D0A004C45445F4F4E0D0ACD
:10404000004C45445F4F46460D0A005645525349C1
:104050004F4E0D0A004745545F4144430D0A004747
:1040600045545F56414C0D0A00465F5345545F5618
:10407000414C570D0A00465F5345545F56414C4230
:104080000D0A00465F4745545F56414C0D0A00003B
:10409000000000000000000001000000100000000F
:1040A000000000000024F4000000000000000000F8
:0440B000000000000C
:04000005080000ED02
:00000001FF
